:020000040800F2
:100000000009002065010008112500081B230008D5
:1000100000000000000000000000000000000000E0
:10002000000000000000000000000000892500081A
:100030000000000000000000132500088B250008C8
:1000400077010008770100087701000877010008B0
:1000500077010008770100087701000877010008A0
:100060000000000077010008770100087701000810
:100070007701000877010008000000007701000800
:1000800000000000770100080000000000000000F0
:1000900077010008000000007701000877010008E0
:1000A000770100087701000877010008A52F0008F4
:1000B000B52F00081D23000800000000000000000C
:1000C00000F002F800F03EF80CA030C80838241800
:1000D0002D18A246671EAB4654465D46AC4201D180
:1000E00000F030F87E460F3E0FCCB6460126334274
:1000F00000D0FB1AA246AB463343184750310000EC
:1001000070310000103A02D378C878C1FAD852078B
:1001100001D330C830C101D504680C6070470000BD
:100120000023002400250026103A01D378C1FBD813
:10013000520700D330C100D50B6070471FB51FBDFB
:1001400010B510BD00F07BF91146FFF7F7FF02F084
:1001500083FF00F093F903B4FFF7F2FF03BC00F054
:1001600099F900000748804707480047FEE7FEE787
:10017000FEE7FEE7FEE7FEE704480549054A064BB1
:100180007047000029260008C10000080003002075
:10019000000900200005002000050020FEB50546EE
:1001A00010460C46184373D0AE468C460020AD1A5C
:1001B00001469C4167D36646002701243D46B61A96
:1001C0009D4102D313463A462124654676462F04C4
:1001D000360C3E432D0CB61A9D4104D3150C1B045E
:1001E0002B4312041034654676462F06360A3E43EA
:1001F0002D0AB61A9D4104D3150E1B022B43120281
:100200000834654676462F0736093E432D09B61A4F
:100210009D4104D3150F1B012B431201241D65467C
:100220007646AF07B6083E43AD08B61A9D4104D3E3
:10023000950F9B002B439200A41C65467646EF0762
:1002400076083E436D08B61A9D411AD392185B4159
:10025000641C16E00018764665464941B71A9D4170
:100260000191009009D36046B11A98418E468446A8
:10027000009801990025401C6941DD0752082A4376
:100280005B08641EE6D57246634603B0F0BDFFE727
:1002900000200146C046C0462A462346F5E701E055
:1002A00004C0091F0429FBD28B0701D50280801CE2
:1002B000C90700D00270704700290BD0C30702D0D5
:1002C0000270401C491E022904D3830702D5028014
:1002D000801C891EE3E70022EEE70022DFE7002210
:1002E00003098B422CD3030A8B4211D300239C4673
:1002F0004EE003460B433CD4002243088B4231D3EB
:1003000003098B421CD3030A8B4201D394463FE07E
:10031000C3098B4201D3CB01C01A524183098B42DE
:1003200001D38B01C01A524143098B4201D34B01C7
:10033000C01A524103098B4201D30B01C01A52412A
:10034000C3088B4201D3CB00C01A524183088B42B1
:1003500001D38B00C01A524143088B4201D34B009A
:10036000C01A5241411A00D201465241104670470C
:100370005DE0CA0F00D04942031000D34042534011
:1003800000229C4603098B422DD3030A8B4212D3D1
:10039000FC22890112BA030A8B420CD38901921103
:1003A0008B4208D3890192118B4204D389013AD040
:1003B000921100E08909C3098B4201D3CB01C01A15
:1003C000524183098B4201D38B01C01A5241430928
:1003D0008B4201D34B01C01A524103098B4201D316
:1003E0000B01C01A5241C3088B4201D3CB00C01A83
:1003F000524183088B4201D38B00C01A5241D9D29B
:1004000043088B4201D34B00C01A5241411A00D21B
:100410000146634652415B10104601D34042002B17
:1004200000D54942704763465B1000D3404201B596
:100430000020C046C04602BD7047704770477546F1
:1004400000F024F8AE46050069465346C008C000D7
:10045000854618B020B5FFF78FFE60BC002749081D
:10046000B6460026C0C5C0C5C0C5C0C5C0C5C0C54C
:10047000C0C5C0C5403D49008D46704710B5044613
:10048000C046C0462046FFF766FE10BD00487047D4
:10049000A002002001491820ABBEFEE726000200A2
:1004A000704772B6FEE730B5014620314A79002325
:1004B000022A04D00422C2630B71012030BD0268FD
:1004C00014680E25AC431460026814686408640064
:1004D0001460446C1C22144001221546006CA54097
:1004E00045604A7118460B7130BD70B50024014655
:1004F00020314A79022A03D00421C163012418E083
:10050000026813680E25AB431360026813685B082A
:100510005B001360436C1C221340012215469D4072
:10052000036C5D604A7100220A71816B002900D062
:100530008847204670BD000070B5044600F0CEF933
:100540000546601C02D004480078241800F0C6F963
:10055000401BA042FAD370BD0C000020F8B5054640
:10056000486800270C46002825D0012823D01128F0
:1005700021D002281FD012281DD011210904884241
:1005800019D021210904884215D03121090488425B
:1005900011D00921490488420DD011214904884213
:1005A00009D019214904884205D0032803D0A3218A
:1005B00084A002F04FFD05200007854205D1216887
:1005C0000804000C0BD0080C1BE08D48854206D1B6
:1005D00021680804000C0CD0080C21D009E08948DF
:1005E000854206D120680104090C0DD0000CF4D01E
:1005F0000AE08548854207D1206841070CD50421CF
:1006000088430028E9D007E08048854204D121686A
:10061000880701D08808F4E7A4216AA002F01AFD37
:10062000C9E006460120B840009006407ED02079FF
:100630008007800F012801D002281ED1E068002821
:1006400009D0012807D0022805D0032803D0B421FF
:100650005CA002F0FFFCA8687A0003219140884367
:10066000E16891400143A960686800998843217955
:10067000C906C90FB940014369602079C0438007AA
:1006800013D0A068002807D0012805D0022803D085
:10069000C5214CA002F0DEFCE8687A0003219140FD
:1006A0008843A16891400143E96020798007800F69
:1006B000022824D10520000785420CD050488542ED
:1006C00009D05048854206D04F48854203D0D221F8
:1006D0003CA002F0BFFC2069072803D9D32139A030
:1006E00002F0B8FCF80880004319186A7907CA0EAE
:1006F0000F21914088432169914001431962286884
:100700007A0003219140884321798907890F91401C
:100710000143296060688003800F4BD03C48416BE7
:10072000012211434163B908890000E042E03948E1
:100730000B189868B9070A0F0F21914088430521CB
:1007400009078D4201D1002114E02D498D4201D1CC
:1007500001210FE02B498D4201D102210AE02A49F3
:100760008D4201D1032105E028498D4201D10521A7
:1007700000E006219140014399602749886862683A
:10078000B043D20200D530438860C8686268B04385
:10079000920200D53043C86048686268B043920353
:1007A00000D53043486008686268B043D20300D582
:1007B000304308607F1C26683046FE4000D030E79A
:1007C000F8BD00002E2E2F447269766572732F5388
:1007D000544D33324C3078785F48414C5F447269F5
:1007E0007665722F5372632F73746D33326C307869
:1007F000785F68616C5F6770696F2E63000000004E
:100800000004005000080050000C0050001C005074
:10081000001002400000014000040140F8B51646F7
:100820000C46054605273F0719481A491A4A1B4B2B
:10083000BD4202D1002C1ED118E0854202D1002C0D
:1008400019D104E08D4202D1002C14D107E0954269
:1008500005D160070AD504212046884304E09D4263
:1008600004D1A00702D0A008002804D0FF219731AE
:100870000BA002F0EFFB002E08D0012E04D0FF21C8
:10088000983107A002F0E6FBAC61F8BDAC62F8BDA0
:100890000004005000080050000C0050001C0050E4
:1008A0002E2E2F447269766572732F53544D333256
:1008B0004C3078785F48414C5F4472697665722F9E
:1008C0005372632F73746D33326C3078785F686164
:1008D0006C5F6770696F2E630000000001488068DC
:1008E000704700000C0000200248816802788918D7
:1008F000816070470C00002010B508480024016892
:10090000402211430160032000F00AF8002801D0C2
:10091000012401E000F064F9204610BD00200240EF
:1009200070B504460D4D7D202978C000FFF7D7FC37
:1009300001460B480068FFF7D2FC01F0BDF9002822
:1009400009D1042C07D200222146401E00F084F970
:1009500000206C6070BD012070BD00000C00002004
:1009600018000020F8B504007ED083492068884232
:1009700003D0E72181A002F06DFB6068012805D05B
:10098000002803D0E9217DA002F064FBA0680028C4
:100990001FD0C11FFF39FA391BD0012189028842BB
:1009A00017D003214902884213D00121C90288428D
:1009B0000FD00521490288420BD0032189028842C9
:1009C00007D007214902884203D0EA216BA002F038
:1009D00041FB01266068F605012802D0A06AB042FA
:1009E00017D1E068002807D0022805D0042803D0DA
:1009F000EE2162A002F02EFB2069002809D0082811
:100A000007D0102805D0182803D0EF215BA002F0F2
:100A100021FB694F6069B84220D0002821D0012114
:100A2000490388421AD04900884217D0032149035C
:100A3000884213D00121C90388420FD00521490300
:100A400088420BD003218903884207D0072149033C
:100A5000884203D0F12149A002F0FCFA6069B84253
:100A60001ED00121490400E03FE0A06988420AD07D
:100A70004900884207D003214904884203D0F42169
:100A80003EA002F0E7FAE069002809D0402807D02C
:100A9000802805D0C02803D0F52138A002F0DAFA6A
:100AA0000121206A4905884205D0002803D0F7219A
:100AB00032A002F0CFFA606A002807D00121890530
:100AC000884203D0F8212DA002F0C4FAA06A0028C1
:100AD00005D0B04203D0F92128A002F0BBFA254688
:100AE0002035A87B002802D006E00120F8BD0020B8
:100AF0006873204600F066F80220A8732068C36877
:100B000086466268012A02D0A06AB04201D11E2046
:100B1000834329496069884201D028490B4028490C
:100B2000676A0B409C46A36811461943236A3B43FE
:100B30001943A76A634639431943002A16D0012A8C
:100B400001D0B74203D12369E2681A4311431A4A1C
:100B5000904205D0A2691043E2690A43104301465E
:100B60007046C1600120A8730020F8BD2369E269C6
:100B70001A431143E5E70000007C00402E2E2F446D
:100B80007269766572732F53544D33324C307878D6
:100B90005F48414C5F4472697665722F5372632FD0
:100BA00073746D33326C3078785F68616C5F6C7031
:100BB00074696D2E63000000FFFF00003F1FFFFF00
:100BC000FEF119FF00680449884204D10348816B93
:100BD000C204114381637047007C00400010024052
:100BE0000448416B012211434163816B02041143AC
:100BF000816370470010024010B5040003D59621B0
:100C000005A002F027FA002C05DBE106C90E012041
:100C100088401049086010BD2E2E2F4472697665F9
:100C200072732F53544D33324C3078785F48414CB7
:100C30005F4472697665722F5372632F73746D33DC
:100C4000326C3078785F68616C5F636F727465785E
:100C50002E63000000E100E070B50C460546102947
:100C600003D3862103A002F0F5F92146284602F0BD
:100C7000CFF970BD2E2E2F447269766572732F5393
:100C8000544D33324C3078785F48414C5F44726940
:100C90007665722F5372632F73746D33326C3078B4
:100CA000785F68616C5F636F727465782E630000B3
:100CB00010B50446FF38013808D0E01FFF38FA3875
:100CC00004D0FF21AC3104A002F0C4F910484168FF
:100CD0002143416010BD00002E2E2F4472697665BD
:100CE00072732F53544D33324C3078785F48414CF7
:100CF0005F4472697665722F5372632F73746D331C
:100D0000326C3078785F68616C5F7077722E630048
:100D10000070004005480168022211430160044848
:100D2000016904221143016130BF70470070004027
:100D300000ED00E0F8B5044600680027BF2803D99D
:100D400066218BA002F086F92078984D800673D535
:100D5000606800281AD001210904884216D0490091
:100D6000884213D00321090488420FD013210904BB
:100D700088420BD023210904884207D0332109047B
:100D8000884203D072217AA002F064F9874E403E77
:100D9000B06BC00004D4B06B31040843B0630127CA
:100DA00083480168C90511D40168821511430160A7
:100DB000FFF794FD009005E0FFF790FD0099401AC1
:100DC000642837D87A480068C005F5D53268032111
:100DD000090560680A400140914208D08103890FEB
:100DE000032904D13168890301D50120F8BD2A699E
:100DF000032109040A4023D00840904220D02078E3
:100E0000800632D528692A6988430121C9040A432A
:100E10002A612A698A432A612861C00510D5FFF733
:100E20005DFD009009E0FFF759FD0099411A614806
:100E3000814202D90320F8BD1EE028698005F2D561
:100E40002078800611D561688803800F032805D1BA
:100E500032680005824301400A4332602869032258
:100E600061681204114008432861002F04D0B16B5F
:100E7000012000078143B1632078C00712D0A06829
:100E8000002809D0012807D0032805D0022803D064
:100E9000E52137A002F0DEF8E868A168800880004C
:100EA0000843E8602078800712D5E068002809D060
:100EB000042807D00C2805D0082803D0F0212CA046
:100EC00002F0C8F8E8680C218843E1680843E8604C
:100ED0002078400716D503262069B60200280CD0DA
:100EE00001218902884208D0B04206D049008842D8
:100EF00003D0FA211EA002F0ADF8E8682169B043E2
:100F00000843E8602078000715D5606900280BD0F9
:100F100001210903884207D04900884204D0FF21FB
:100F2000053113A002F096F8E8680321090388430D
:100F300061690843E8602078000617D50326A06998
:100F4000B60400280DD001218904884209D0490047
:100F5000884206D0B04204D0FF21233104A002F021
:100F600079F8E868A169B0430843E860002062E7C7
:100F70002E2E2F447269766572732F53544D33327F
:100F80004C3078785F48414C5F4472697665722FC7
:100F90005372632F73746D33326C3078785F68618D
:100FA0006C5F7263635F65782E63000040100240DF
:100FB0000070004088130000F8B50E46050075D09B
:100FC0002868C10709D1810707D4410705D4000764
:100FD00003D48D498DA002F03DF8002E06D0012EDD
:100FE00004D0894989A0491C02F034F8954800686A
:100FF000C007C00FB04214D2924C20684008400095
:1010000030432060FFF76AFC074605E0FFF766FC07
:10101000C11B8D48814277D82068C007C00FB042FD
:10102000F4D12878894C80071DD5A868002814D0F1
:10103000802812D0902810D0A0280ED0B0280CD034
:10104000C0280AD0D02808D0E02806D0F02804D044
:101050006D496EA01D3101F0FDFFE068F02188436D
:10106000A9680843E0602878C00764D06868002851
:1010700011D001281CD0022810D0032812D06249B8
:1010800062A0243101F0E6FF6868022806D0032838
:1010900008D001280CD02068800505E02068800376
:1010A00002E003E020688001002804DB0120F8BD95
:1010B00020684007F8E7E068696880088000084316
:1010C000E060FFF70BFC0746686802280AD0032897
:1010D00014D001281FD02AE0FFF700FCC11B5A489A
:1010E00081423DD8E0680007800F0228F4D122E059
:1010F000FFF7F4FBC11B5448814231D8E068000778
:10110000800F0328F4D116E02AE0FFF7E7FBC11BAC
:101110004D48814224D8E0680007800F0128F4D1AF
:1011200009E0FFF7DBFBC11B4748814218D8E068A4
:101130000007800FF5D143480168C907C90FB142C4
:1011400016D901684908490031430160FFF7C6FB21
:10115000074607E0FFF7C2FBC11B3B48814201D9AC
:101160000320F8BD37480068C007C00FB042F1D176
:101170002878374F374E400718D5E868002810D038
:101180000121890288420CD0B8420AD003214902C9
:10119000884206D0B04204D01B491CA08E3101F019
:1011A00059FFE068E968B0430843E0602878000729
:1011B0001BD52869002810D00121890288420CD053
:1011C000B8420AD003214902884206D0B04204D076
:1011D0000D490EA0953101F03DFFE0680721C902DD
:1011E00088432969C9000843E06000F05BF8E168C2
:1011F000194A0906090F515CC84018490860184887
:101200000068FFF78DFBF8BD650300002E2E2F440C
:101210007269766572732F53544D33324C3078783F
:101220005F48414C5F4472697665722F5372632F39
:1012300073746D33326C3078785F68616C5F7263A1
:10124000632E63000020024088130000001002405B
:1012500000050000000700002832000818000020E8
:1012600010000020044805490068C968044A49057F
:10127000490F515CC8407047180000200010024020
:1012800041320008044805490068C968044A8904D5
:10129000490F515CC8407047180000200010024000
:1012A0004132000870B51A4AD3681A490C20184018
:1012B0008D0004280CD0184E082810D00C2810D00F
:1012C00050680004410F0120C003491C884070BDD4
:1012D0001068C00601D5084670BD284670BD30466E
:1012E00070BD98020D4C000F205C1B029C0FD36850
:1012F000641CDB0301D5314603E01268D20600D43A
:10130000294601F05FFE22460023FEF747FF70BD2D
:101310000010024000093D00001BB70038320008F1
:10132000FEB504007ED0206800280ED0C1070CD185
:1013300081070AD4010708D4410706D4C00604D4A3
:10134000FF215F31F1A001F085FEFE4DEF680C201A
:10135000EE6807400120000406402078C00758D0FE
:10136000606800280CD001210904884208D00521BA
:101370000904884204D0FF216831E4A001F06AFE2C
:10138000082F05D00C2F0AD101200004864206D177
:10139000286880033DD560680028C3D039E001206B
:1013A00061680004814202D12968014312E00522EC
:1013B00012049142296804D1012292041143296048
:1013C000F2E78143296029680140009129680120E2
:1013D000800481432960606800280DD0FFF77EFA01
:1013E000009005E0FFF77AFA0099401A64286ED859
:1013F00028688003F6D50CE0FFF770FA009005E04E
:10140000FFF76CFA0099401A6428F0D82868800326
:10141000F6D4207880076BD5E06800280AD0012830
:1014200008D000E09FE2092804D0FF219B31B7A03B
:1014300001F010FE20691F2804D9FF219C31B3A0C0
:1014400001F008FE0921E068042F0DD00C2F01D116
:10145000002E09D000283BD02A688A4302432A6024
:10146000FFF73CFA064626E02A68520701D5002815
:1014700093D06A681F231B029A4323691B021A43F5
:101480006A602A688A4302432A60FFF70BFFE96813
:1014900009060A0FAC49895CC840AC490860AC48F1
:1014A0000068FFF73DFA00287ED121E0FFF716FA29
:1014B000801B02289BD828684007F7D568681F2141
:1014C00009028843216909020843686010E002E2CA
:1014D0002868400840002860FFF700FA064604E04C
:1014E000FFF7FCF9801B02288FD828684007F7D443
:1014F0002078C00665D50126F603002F14D0A06918
:1015000000287DD0012806D0924980A001F0A2FDDC
:10151000A0690028F5D02868FF2101310843286020
:10152000FFF7DCF9009053E02868800502D5A06938
:1015300000289DD0E069FF2804D9FF21FF3173A066
:1015400001F088FD206A002819D001214903884252
:1015500015D04900884212D00321490388420ED099
:10156000B0420CD005214903884208D003218903E9
:10157000884204D0774965A0173901F06BFD68688F
:10158000072149038843216A084368606868217F0E
:101590000002000A090608436860206A400B401CEC
:1015A0008640E868000600E07FE0010F6648405C86
:1015B000C6406648066066480068FFF7B1F9002833
:1015C00073D14FE0FFF78AF90099401A02288BD8AF
:1015D00028688005F6D5E069FF2804D95D494BA04D
:1015E000143101F037FD206A00281BD00121490386
:1015F000884217D04900884214D00321490300E0F3
:101600001FE088420ED0B0420CD005214903884229
:1016100008D003218903884204D04E493BA01531EC
:1016200001F018FD6868072149038843216A0843CF
:1016300068606868217F0002000A09060843686044
:1016400010E02968FF20013081432960FFF746F947
:10165000064604E0FFF742F9801B0228B7D8286845
:101660008005F7D420783C4E000730D5606900280B
:101670001CD0012807D0374924A0333101F0EAFCFF
:101680006069002812D03069012108433061FFF7FA
:1016900025F9009005E0FFF721F90099401A02288A
:1016A00095D830698007F6D511E044E130694008EB
:1016B00040003061FFF712F9009005E0FFF70EF9E6
:1016C0000099401A0228C9D830698007F6D42078DA
:1016D00040076ED500200290A06800280BD0C11FE3
:1016E000F93908D005210902884204D0194907A018
:1016F0005F3101F0AFFCA86BC00006D4A86B0121DC
:1017000009070843A8630120029027E02E2E2F44EA
:101710007269766572732F53544D33324C3078783A
:101720005F48414C5F4472697665722F5372632F34
:1017300073746D33326C3078785F68616C5F72639C
:10174000632E6300001002402832000818000020B9
:10175000100000201602000040100240844801687A
:10176000C90511D40168821511430160FFF7B6F86D
:10177000009005E0FFF7B2F80099401A64288FD86E
:101780007B480068C005F5D5FF20A2680130824281
:1017900003D131690143316112E001218902002A3C
:1017A00008D005231B029A4204D132690A433261F0
:1017B000EFE72DE03269824332613069884330615E
:1017C000A06800280ED0FFF789F8009006E0FFF728
:1017D00085F80099411A674881427CD830698005B4
:1017E000F5D50DE0FFF77AF8009006E0FFF776F800
:1017F0000099411A5F4881426DD830698005F5D45F
:101800000298002804D0A96B012000078143A96336
:10181000606A00287ED0012808D0022806D05649E8
:10182000564801F017FC606A002873D00326B605FD
:101830000C2F70D001273F06022806D02868B84335
:101840002860FFF74BF8044676E0A06A002808D02D
:1018500001210904884204D02F210901474801F0E1
:10186000F9FBE06A002823D00121890488421FD0B7
:10187000490088421CD003218904884218D00121E4
:101880000905884214D005218904884210D003211B
:10189000C90488420CD007218904884208D001215C
:1018A0004905884204D0344934480A3101F0D2FB5A
:1018B0000121206B8905884209D04900884206D061
:1018C000B04204D02C492D480B3101F0C3FB2868ED
:1018D000B843286000E02DE0FFF700F8064604E07A
:1018E000FEF7FCFF801B022824D828688001F7D46B
:1018F000E16AA06AEA680843216BFD231B049A434E
:1019000011430843E860286838432860FEF7E6FF83
:10191000044606E029E013E0FEF7E0FF001B022882
:1019200008D828688001F7D51FE0FEF7D7FF001B15
:10193000022801D90320FEBD28688001F5D414E0F7
:101940000128F8D0E86801210904A26A0140914207
:1019500009D10F218904E26A0140914203D1216B30
:101960003040884201D00120FEBD0020FEBD0000B5
:101970000070004088130000E70200000C17000808
:10198000F7B582B0160004460DD0012E0BD0022E02
:1019900009D0032E07D0042E05D0062E03D03949D6
:1019A00039A001F057FB47490398884204D93549CB
:1019B00035A0491C01F04EFB25462035287801282A
:1019C00013D001202870022068702168CA20486264
:1019D000216853204862206880680027400500285D
:1019E00012DAFEF77BFF00900AE0022005B0F0BD9E
:1019F000FEF774FF0099411A7D20C00081421CD877
:101A00002068C0684007F3D42068826801218902F9
:101A10008A4382602068C168802211402A4A89185E
:101A2000C160FEF75BFF00900EE0FEF757FF0099E4
:101A3000411A7D20C000814206D92168FF204862FA
:101A4000032068702F70D1E72068C0684007ECD58C
:101A500020688168C908C9008160206881683143B5
:101A600081602168039848612068816801229202A0
:101A7000114381602168FF204862012068702F7047
:101A80000020B3E76D0400002E2E2F4472697665A6
:101A900072732F53544D33324C3078785F48414C39
:101AA0005F4472697665722F5372632F73746D335E
:101AB000326C3078785F68616C5F7274635F6578F0
:101AC0002E630000FFFF00007FFBFFFF70B50400E6
:101AD0005CD053492068884204D0FF21053151A0D1
:101AE00001F0B8FA6068402806D0002804D0FF2131
:101AF00006314CA001F0AEFAA0687F2804D9FF217E
:101B0000073148A001F0A6FA5449E068884204D998
:101B1000FF21083143A001F09DFA206900280FD071
:101B20000121490588420BD04900884208D0032191
:101B30004905884204D0FF2109313AA001F08AFA10
:101B40006069002806D0022804D0FF210A3135A0A0
:101B500001F080FAA069002808D001210905884217
:101B600004D0FF210B312FA001F074FAE0690028A6
:101B700006D0012804D0FF210C312AA001F06AFA16
:101B8000254620356878002802D006E0012070BD87
:101B900000202870204600F065F802206870206858
:101BA000C168C943C90637D5CA214162216853209B
:101BB0004862204600F0AEFC002827D120688168EA
:101BC000274A11408160216888686268A3691043D0
:101BD00022691A43104388602168E0680861206820
:101BE00001692289120411430161204600F0B5FC0D
:101BF00000280BD12168CA6C92089200CA64E2697D
:101C000061690A432168CB6C1A43CA642268FF21C8
:101C10005162002801D070BD00200121697070BDA3
:101C2000002800402E2E2F447269766572732F5360
:101C3000544D33324C3078785F48414C5F44726980
:101C40007665722F5372632F73746D33326C3078F4
:101C5000785F68616C5F7274632E6300FF7F0000C1
:101C6000BFFF8FFF00680549884205D1044801691C
:101C700001229204114301617047000000280040D6
:101C80004010024070B5044621680A48C860FEF75B
:101C900025FE7D260546F60006E0FEF71FFE401BEA
:101CA000B04201D9032070BD2068C0688006F4D519
:101CB000002070BD5F7F0100094910B5401E8842B9
:101CC00001D9012010BD074C60610321081F01F0FC
:101CD0009FF90020A06107202061002010BD0000B6
:101CE000FFFFFF0000E000E0704770477047000012
:101CF000F8B502680446D06911689368A44D064699
:101D00002E4025468035002E71D0A24FDE07F60FFB
:101D10000F4037437ED0C70706D0CF0504D5012733
:101D200017626A683A436A60820708D5DA0706D004
:101D3000276802223A626A6804273A436A604207C7
:101D400008D5DA0706D0236804221A626A680223DB
:101D50001A436A60020709D520220A40324305D09F
:101D6000236808221A626B6813436B60020509D569
:101D70004A0107D501222368D2021A626A68202329
:101D80001A436A606A68002A39D0800606D5880638
:101D900004D5A16E002901D02046884768682168D3
:101DA0008968490602D4282108422DD0204600F037
:101DB000A7FD21688868400622D5EFF31080012234
:101DC00082F310888A6840239A438A6080F31088DF
:101DD000606F002814D070498163606FFEF785FB47
:101DE00000280CD0606F816B08E000E012E08606EE
:101DF00010D58E060ED5A16EAFE020468847F8BDFF
:101E00002046FFF773FFF8BD2046FFF76FFF002065
:101E10006860F8BD266E012E7DD1C6067BD5CE0644
:101E200079D5102313622268906826464006403612
:101E3000002849DA616F086840680004000CE8D0A7
:101E4000378B8742E5D9708308680068800634D4F0
:101E5000EFF31080012181F3108811681F01B9434D
:101E6000116080F31088EFF31080012181F3108856
:101E700021688A68520852008A6080F31088EFF364
:101E80001080012181F3108821688A684027BA43B5
:101E90008A6080F310882020286000202066EFF3FD
:101EA0001080012181F3108821680A689A430A6032
:101EB00080F31088606FFEF7F6FA02206066308BC0
:101EC000718B401A81B234E0308B718B401A81B231
:101ED000708B00289DD000299BD0EFF31080012645
:101EE00086F310881668FF272137BE43166080F3FB
:101EF0001088EFF31080012282F310882268966820
:101F000076087600966080F31088202028600020F4
:101F10002066A06600E010E0EFF31080012282F35B
:101F20001088226815689D43156080F31088022090
:101F300060662046FFF7D8FEF8BDC50208D55B02F3
:101F400006D50120000510622046FFF7CEFEF8BD41
:101F5000030606D50B0604D5E16E002900D04CE738
:101F6000F8BD4006FCD54806FAD52046EFF31081AF
:101F7000012383F3108813684024A343136081F383
:101F800010882021C1670021C16600F0C5F9F8BDA5
:101F90000F08000020010004ED28000810B504001F
:101FA0000FD0A06925490028254A264B20680AD071
:101FB000884213D0904211D098420FD0FF212F3188
:101FC00009E0012010BD884208D0904206D0984216
:101FD00004D0FF2134311CA001F03CF8E06F002850
:101FE00005D1002178200155204600F04BF824202F
:101FF000E06720680168490849000160204600F058
:1020000087FD0128DED0606A002802D0204600F05B
:102010000DFB206841680922D2029143416020688B
:1020200081682A229143816020680168012211435E
:102030000160204600F0F8FB10BD000000380140B0
:1020400000440040004800402E2E2F4472697665FF
:1020500072732F53544D33324C3078785F48414C73
:102060005F4472697665722F5372632F73746D3398
:10207000326C3078785F68616C5F756172742E6362
:1020800000000000F0B587B0044614216846FEF752
:1020900024F9304D266800222F480221032304240E
:1020A000AE4217D1856B4E0435438563C56A0D4337
:1020B000C562C06A6D460840059098021FC5694612
:1020C0002648FEF74BFA002211461D20FEF7C4FDFC
:1020D0001D201CE0224F0125BE421CD1466BAF03E0
:1020E0003E434663C66A2E43C662C06A6E462840B7
:1020F0000590032040021FC6052069460007FEF731
:102100002DFA002211461B20FEF7A6FD1B20FEF72C
:1021100073FD07B0F0BD134FBE42FAD1866B0127A5
:102120007F043E438663C66A2E43C662C06A6E461B
:10213000C007C00F05900C201FC605206946000788
:10214000FEF70CFA002211461C20FEF785FD1C202C
:10215000DDE700000048004000100240000400508D
:10216000003801400044004070B580231B58202BEC
:1021700001D0022070BD00290BD0002A09D0012413
:1021800083682403A34206D10369002B03D1CB0744
:1021900001D0012070BD002303660B4B04689C42F4
:1021A0000ED063681B020BD5EFF31083012585F376
:1021B000108825680126B6063543256083F310880C
:1021C00000F046FE70BD00000048004010B51C4BFA
:1021D00002681C499A4206D10B788A881A4CA418C6
:1021E000521C8A802370194B02689A4207D14B789F
:1021F000CA88154C3234A418521CCA802370006857
:10220000134A904207D18A7808890F4B64331B1810
:10221000401C08811A700C4801220A499830FFF7C7
:10222000A3FF08490122491C0A48FFF79DFF054901
:1022300008480122891C8830FFF796FF10BD000076
:1022400000480040000000204C0000200038014001
:10225000004400406C010020FFB50446C06F83B00D
:1022600017460D46202802D0022007B0F0BD002DF1
:102270000BD0002F09D00120A1680003814206D1B4
:102280002069002803D1E80701D00120EDE70021F3
:10229000842001512120E067FEF720FB26464036CE
:1022A0000190378277820120A1680003814202D128
:1022B0002069002802D02F46002511E000270FE0FA
:1022C00000228021204600F027FE002815D1002F93
:1022D00017D02168387888627F1C708A401E70820F
:1022E000708A019B002806980090E9D100224021C5
:1022F000204600F011FE00280AD02020E0670320CD
:10230000B3E728882168C005C00D8862AD1CE4E7EA
:102310002020E0670020A8E77047FEE710B50248DC
:10232000FFF7E6FC10BD0000E4000020F0B587B028
:1023300014216846FDF7D1FF2748C26A04210A43E9
:10234000C262C26A0A400592C26A80210A43C2621E
:10235000C26A0A400592C16A01263143C162C16A5C
:1023600031400591C26A02210A43C262C06A07274E
:1023700008407F030590002239461848FEF74EFAC0
:102380000325002469461648009701950294FEF73C
:10239000E5F800956946134801950294FEF7DEF8CA
:1023A0001148009005206946019502940007FEF748
:1023B000D5F80E4800906946019502940748FEF74B
:1023C000CDF8029469460548009701960394FEF7FC
:1023D000C5F807B0F0BD0000001002400004005036
:1023E00000080050001C0050F3990000FF1300008B
:1023F00010B50A480849016000214160816001620E
:10240000074A416242618162FEF7ACFA002801D0BE
:10241000FEF747F810BD0000007C00401C000020C3
:10242000FFFF000010B50C480A490160E121490294
:10243000416000218160C160016181610C22016203
:1024400042614162FFF7AAFD002801D0FEF729F89A
:1024500010BD000000480040E400002010B50F4807
:102460000D4901607F22826000214160016141616C
:10247000FF228161C260C161FFF728FB002801D003
:10248000FEF70FF8002211460448FFF779FA0028FA
:1024900001D0FEF706F810BD002800407C020020A5
:1024A00010B50C480A490160E12149024160002150
:1024B0008160C16001618161C1610C220162426180
:1024C0004162FFF76BFD002801D0FDF7EAFF10BD68
:1024D000003801406C01002010B50C480A49016029
:1024E000E1214902416000218160C1600161816197
:1024F000C1610C22016242614162FFF74FFD002879
:1025000001D0FDF7CEFF10BD00440040F4010020D3
:10251000FEE77047F8B5044600680025C168490623
:1025200019D4C16880221143C160FEF7D7F927464C
:102530000646203709E0FEF7D1F9811B7D20C00057
:10254000814202D90420787001252068C0684006C5
:1025500001D4002DEFD02846F8BD70B504460068C0
:102560000025C16880229143C16020688068800690
:1025700008D42046FFF786FB002803D0042020342F
:1025800060700125284670BD704710B5FEF7ACF9A4
:1025900010BD000030B599B034216846FDF79DFEAE
:1025A000142114A8FDF799FE1C210DA8FDF795FE36
:1025B0001C4801680322D2029143C21489180160A9
:1025C0000A2000900024012510200994049003950E
:1025D00005956846FEF7A4FE002801D072B6FEE716
:1025E0000F201490802016901595179400211894B0
:1025F00014A8FEF7E1FC002801D072B6FEE7A72080
:102600000D900120400413940E900F941094119497
:102610000DA8FEF78FFB002801D072B6FEE719B0B7
:1026200030BD0000007000407047000070B50446E7
:10263000406AFF2803D96A496AA000F00BFDA08C0C
:10264000C00711D00125A06A6D04002806D0A84259
:1026500004D0634963A0491D00F0FCFC2068416878
:10266000A26AA94311434160A08C800711D50125BE
:10267000E06A2D04002806D0A84204D0584959A089
:102680000C3100F0E7FC21684868E26AA843104377
:102690004860A08C400711D50125206BAD040028AF
:1026A00006D0A84204D04E494EA0133100F0D2FC0F
:1026B00020684168226BA94311434160A08C000748
:1026C00011D50125606BED03002806D0A84204D087
:1026D000434944A01A3100F0BDFC21684868626B90
:1026E000A84310434860A08CC00611D50125A06BFB
:1026F0002D03002806D0A84204D0394939A0213141
:1027000000F0A8FC21688868A26BA8431043886089
:10271000A08C800611D50125E06B6D03002806D042
:10272000A84204D02E492FA0283100F093FC216844
:102730008868E26BA84310438860A08C400639D5B6
:1027400037492068884207D03649884204D0244956
:1027500024A02F3100F07EFC0125206C2D050028DF
:1027600006D0A84204D01E491EA0303100F072FCF1
:1027700021684868226CA84310434860206CA84236
:1027800018D10325606C6D0500280DD00121490585
:10279000884209D04900884206D0A84204D0104996
:1027A00010A0353100F056FC21684868626CA843DF
:1027B00010434860A08C000611D50125A06CED04E3
:1027C000002806D0A84204D0054906A03D3100F0FB
:1027D00041FC20684168A26CA9431143416070BD6F
:1027E0008E0C00002E2E2F447269766572732F5363
:1027F000544D33324C3078785F48414C5F447269B5
:102800007665722F5372632F73746D33326C307828
:10281000785F68616C5F756172742E630000000000
:102820000038014000440040FEB5074600258037CF
:1028300004467D60FEF752F8019020680068264645
:1028400000076036002819DA27480090012100228D
:1028500049052046019B00F05FFB00280ED0EFF3F6
:102860001080012181F3108821680A6880239A432F
:102870000A6080F310882020E06729E02068006863
:10288000400728D5184800900121002289052046DC
:10289000019B00F041FB00281DD0EFF310800121C7
:1028A00081F3108821680A68FF2321339A430A6064
:1028B00080F31088EFF31080012181F310882168E4
:1028C0008A68520852008A6080F31088202038609D
:1028D00035760320FEBD2020E067386025666566FA
:1028E00035760020FEBD0000FFFFFF0110B5806AB5
:1028F0000022014640314A834A82FFF7F7F910BDB2
:1029000010B5EFF31081012282F31088026813687A
:10291000FF242134A343136081F31088EFF3108167
:10292000012282F31088026893685B085B00936061
:1029300081F31088016E01290BD1EFF31081012280
:1029400082F31088026813681024A343136081F394
:102950001088202280210A5000210166816610BD66
:1029600070B501464031034680338C8B1D68026888
:10297000222D04D0906908210843906170BD526AED
:10298000456D22402A80426D921C42654A8B521E40
:102990004A834A8B002AF1D1EFF31082012484F399
:1029A000108804682568FF262136B543256082F328
:1029B0001088EFF31082012484F310880468A5685E
:1029C0006D086D00A56082F3108820221A60002334
:1029D00083664366174A046894420ED06268120206
:1029E0000BD5EFF31082012585F3108825680126A9
:1029F000B606B543256082F31088026E012A02D024
:102A0000FFF7E4FB70BD0366EFF31082012383F34D
:102A100010880468256810239D43256082F3108880
:102A20000268D469E443E40600D41362098BFFF71B
:102A30005BF970BD0048004070B501464031034667
:102A400080338C8B1D680268222D04D09069082188
:102A50000843906170BD526A2240446D2270426DFD
:102A6000521C42654A8B521E4A834A8B002AF1D17E
:102A7000EFF31082012484F3108804682568FF2690
:102A80002136B543256082F31088EFF310820124CC
:102A900084F310880468A5686D086D00A56082F352
:102AA000108820221A60002383664366174A046850
:102AB00094420ED0626812020BD5EFF3108201250A
:102AC00085F3108825680126B606B543256082F394
:102AD0001088026E012A02D0FFF778FB70BD0366F2
:102AE000EFF31082012383F3108804682568102314
:102AF0009D43256082F310880268D469E443E406AC
:102B000000D41362098BFFF7EFF870BD0048004056
:102B1000F8B504464068B6490025884203D3B54954
:102B2000B5A000F097FA01210907A0680E148842A9
:102B300008D0002806D0B04204D0AE49AEA0491C4F
:102B400000F088FABB480327226841143F03824201
:102B5000E06806D100281DD088421BD0A549091D78
:102B600015E0B0420AD0002808D0B84206D088420A
:102B700004D0A049A0A0083100F06CFA206A002817
:102B800008D00121C902884204D09A4909319AA08B
:102B900000F060FA206900280CD0012189028842E7
:102BA00008D003214902884204D0924992A00C31F6
:102BB00000F050FA60690C2102468A4301D10028D6
:102BC00004D18C498CA00D3100F044FAA069002892
:102BD0000FD0C11FF9390CD0C11FFF39FA3908D005
:102BE00003210902884204D0824983A00E3100F0FB
:102BF00031FA0126E069F603002806D0B04204D07D
:102C00007C497DA00F3100F025FA2169A068E269B6
:102C1000084361691143084321680A68864B1A40DA
:102C200002430A6020684168E268B9431143416089
:102C3000804B2168A069994201D0226A10438A68BA
:102C40000B273F02BA4302438A607C4927687C48CD
:102C50008F420CD1C0688007800F06D0012838D081
:102C6000022824D0032821D11EE001201FE075494D
:102C70008F420AD1C0680C21084018D0042816D011
:102C8000082824D00C2811D10EE09F420ED1C16833
:102C900003208002014018D001208002091A18D0B8
:102CA000091A14D0814201D1082000E010205049B7
:102CB000491E8A009F4237D100280CD002280DD02F
:102CC000042814D008282CD12CE00020EFE70220A3
:102CD000EDE70420EBE7FEF7C5FA0AE05848403874
:102CE0000068C00601D5084605E0104603E0FEF77F
:102CF000D9FA002877D062685100511881426BD808
:102D00001103814268D3010E0602500800233018D7
:102D10005941FDF743FA032109024B4A411A9142F6
:102D20005FD959E03046E6E7E369484FB3422ED118
:102D3000030000F05FF90906090C51155151512AA1
:102D40005100FEF78FFA0DE0FEF79CFA0AE03C48CE
:102D500040380068C00601D5084605E0104603E08B
:102D6000FEF7A0FA00283ED0616840004A088018AB
:102D7000FDF7B5FA01461039B9422DD83349491C3F
:102D800001400007400F08432BE03046ECE703000A
:102D900000F030F90906090C221522222224220013
:102DA000FEF760FA0DE0FEF76DFA0AE024484038BD
:102DB0000068C00601D5084605E0104603E0FEF7AE
:102DC00071FA00280FD061684A081018FDF787FAD9
:102DD00001461039B94203D9012504E03046F2E733
:102DE00080B22168C8600020A066E0662846F8BD71
:102DF00001093D00B50B00002E2E2F447269766547
:102E000072732F53544D33324C3078785F48414CB5
:102E10005F4472697665722F5372632F73746D33DA
:102E2000326C3078785F68616C5F756172742E63A4
:102E30000000000000480040F369FFEF0038014047
:102E40004010024000440040FFFC0F00EFFF000074
:102E500070B54165014640310A834A830023836689
:102E6000012284681203FF25944204D10469002CD6
:102E700013D1264C0AE07F26002C09D001252D070E
:102E8000AC420CD10469002C05D03F248C8307E0B0
:102E90000469002C01D08E8302E08D8300E08B83D7
:102EA000014680314B6022230B60EFF31081012338
:102EB00083F3108803689C6801252C439C6081F390
:102EC00010888168914202D1016900290ED0104911
:102ED0008166016900290BD0EFF31081012282F392
:102EE000108800680268FF23213309E009498166E0
:102EF000EFF31081012282F310880068026820231A
:102F00001A43026081F31088002070BDFF010000A9
:102F1000392A000861290008FFB5064681B08036CD
:102F20000546044660350A9F2EE0781C2CD0FDF73C
:102F3000D5FC0499401AB84214D8002F12D020684A
:102F40000168490720D5C169C94309070CD408277E
:102F500007622046FFF7D4FC776000202876012026
:102F600005B0F0BD0320FBE7C069C04300050BD4EA
:102F700001202168C00208622046FFF7C1FC202022
:102F8000706000202876EDE72068C16902988843C8
:102F900005D0002103988142C7D00020E0E701213D
:102FA000F8E7000010B50248FEF7A2FE10BD0000D1
:102FB0006C01002010B50248FEF79AFE10BD00001B
:102FC000F4010020F8B5040C8BB2264682B25E43B1
:102FD0000D0C1046370C58433604801900217941F6
:102FE00016466E43370C36048019794126466E43E7
:102FF0008919F8BD30B47446641E2578641CAB4250
:1030000000D21D46635D5B00E31830BC184700002A
:103010008307FF22DB0E9A408907090E994000289A
:1030200008DB830809489B001B1818689043084375
:10303000186070470007000F0838830804489B0099
:103040001B18D86990430843D861704700E400E03A
:1030500000ED00E070470000FDF74EFCFFF79AFA24
:10306000FFF764F9FFF7DEF9FFF71AFAFFF734FA12
:10307000FFF7BEF9FFF7F2F9FF230D222EA1334827
:10308000FFF7EAF8FF230D2231A13548FFF7E4F8F6
:10309000FF230D2233A13748FFF7DEF8012236491E
:1030A0002A48FFF761F8012234492D48FFF75CF800
:1030B000012233492F48FFF757F8002600F06EF839
:1030C000304C00270A20FDF737FA208800280CD062
:1030D0002288FF232C492248FFF7BEF821882A487E
:1030E000FDF7F9F82780761CF6B2284D28880028CD
:1030F0000AD02A88FF2326491448FFF7ADF829880B
:103100002348FDF7E8F82F800A20FDF715FA214D36
:10311000288800280AD02A88FF231F491048FFF773
:103120009BF829881C48FDF7D6F82F80032EC9D9B3
:1031300000F034F8C6E700004C505F55415254315E
:10314000205354415254210A00000000E4000020A2
:103150005541525431205354415254210A00000029
:103160006C01002055415254322053544152542195
:103170000A000000F40100200000002001000020EF
:1031800002000020040000204C0000200600002067
:103190007E00002008000020B000002070B58CB038
:1031A000FFF7F8F91B4CE06A01210843E062E06A8E
:1031B00008400A9014216846FDF78FF8142105A8ED
:1031C000FDF78BF8144800250226694661C10520E9
:1031D000694600070395FDF7C1F9104805A961C1CB
:1031E00005A90F480895FDF7B9F9A06B210408431C
:1031F000A0630815FDF75CFD0A480168042211432D
:103200000160FDF787FDE06A40084000E0620CB015
:1032100070BD000000100240FE66000003030000C5
:10322000000400500070004000000000000000009A
:103230000102030406070809030406080C101820FD
:103240003000000000010203040000006C3200089E
:10325000000000201C000000040100088832000863
:103260001C000020E408000020010008000000000D
:103270000000000000000000010000000400000049
:08328000000000000000200026
:04000005080000C12E
:00000001FF
