:020000040800F2
:1000000000070020ED010008392200080520000843
:1000100035220008F902000815330008000000002E
:100020000000000000000000000000004122000865
:10003000FD020008000000003D22000845220008E3
:10004000070200080702000807020008070200086C
:10005000070200080702000807020008070200085C
:10006000070200080702000807020008070200084C
:10007000070200080702000807020008070200083C
:10008000070200080000000007020008070200083D
:10009000070200080702000807020008070200081C
:1000A000070200080702000807020008070200080C
:1000B00007020008070200080702000807020008FC
:1000C00007020008070200080702000807020008EC
:1000D00007020008F1320008FD3200080933000869
:1000E00007020008070200080702000807020008CC
:1000F00007020008070200080702000800000000CD
:1001000000000000070200080000000007020008CD
:1001100007020008000000000702000807020008AC
:10012000070200080702000807020008070200088B
:10013000070200080000000000000000070200089D
:10014000070200080702000800000000000000008D
:10015000000000000000000000000000000000009F
:10016000000000000000000000000000070200087E
:10017000070200080000000000000000000000006E
:10018000000000000702000800000000000000005E
:10019000000000000000000000000000000000005F
:1001A000000000000000000007020008070200082D
:1001B000070200080702000807020008000000000C
:1001C000000000000702000800000000000000001E
:1001D0000702000807020008DFF80CD000F07AF8E8
:1001E00000480047193300080007002006488047F0
:1001F00006480047FEE7FEE7FEE7FEE7FEE7FEE70C
:10020000FEE7FEE7FEE7FEE749220008D901000805
:100210002DE9F05F0546002092469B46884606463B
:10022000814640241BE0284641464746224600F0CE
:1002300041F853465A46C01A914110D31146184608
:10024000224600F028F82D1A67EB01084F46224697
:100250000120002100F01FF817EB00094E41201E7D
:10026000A4F10104DFDC484631462A464346BDE896
:10027000F09FD2B201E000F8012B491EFBD270477B
:100280000022F6E710B513460A4604461946FFF762
:10029000F0FF204610BD202A04DB203A00FA02F1CC
:1002A000002070479140C2F1200320FA03F3194364
:1002B00090407047202A04DB203A21FA02F0002106
:1002C000704721FA02F3D040C2F120029140084366
:1002D00019467047064C074D06E0E06840F0010300
:1002E00094E8070098471034AC42F6D3FFF778FF44
:1002F0004835000868350008FEE700007047000038
:10030000EFF3108072B600BFFEE7000090F82510F2
:10031000022925D101680A6822F00E020A60826C67
:10032000136823F48073136001230A6822F001022A
:100330000A60D0E9101202F01F0203FA02F24A60CA
:10034000D0E913124A60416D00291FBF0A6822F4E8
:1003500080720A60D0E9161218BF4A60002102E0DC
:100360000421C1630121002280F82420012280F8A9
:10037000252008467047000090F8251002292FD14B
:1003800001680A6822F00E020A600A6822F001027F
:100390000A60816C0A6822F480720A60D0E9101247
:1003A00002F01F03012202FA03F34B60D0E913139A
:1003B0004B60416D31B10B6823F480730B60D0E961
:1003C00016134B60002180F8241080F82520826BE2
:1003D00022B180B590470021BDE8804008467047B3
:1003E0000421C163002180F82410012180F8251028
:1003F00008467047B0B5044600F0FAF8054640F2EA
:100400000000611CC2F20000406818BF044400BF35
:1004100000F0EEF8401BA042FAD3B0BD2DE9F04F3A
:1004200082B00E68002E00F0DA8041F2004206270A
:100430004FF0000A00244FF00008C4F6000290427A
:1004400000F1384208BF05274FEAB223052B38BF19
:100450004FEAB227009701277B1E012202FA03F51B
:1004600016EA050900F0AF80D1F804B00BF00306DE
:10047000721E012A18D8032202FA04FC826822EABA
:100480000C0ECA686FEA0C0CA24042EA0E028260AF
:10049000CBF3001202FA03FE4268AA4342EA0E02BC
:1004A0004FEA480E42600BE00322032EA64602FAF2
:1004B00004F26FEA020C03D1A646032622E000BF35
:1004C000C2688D68022E02EA0C0205FA0EF542EAB5
:1004D0000502C26016D10AF01C020F2505FA02FBC4
:1004E0006FF0030505EA53060644356A25EA0B0B4F
:1004F0000D6905FA02F242EA0B023262D1F804B049
:100500000BF0030606FA0EF206681BF4403F06EAFB
:100510000C0642EA0602026055D041F2600240F247
:10052000004E0AF00C05C4F20202C4F2010E164697
:10053000126842F001023260326802F00102019258
:1005400023F003024FF60843CFF6FF737244019E77
:100550009B4652F803C00F2303FA05F6009B2CEAD2
:10056000060603FA05F52E4342F80B60DEF8082074
:100570004D6842EA0906EB0258BF22EA090640F23A
:100580000C42CEF80860C4F20102AE029446126832
:1005900042EA090358BF22EA0903CCF80030AE034F
:1005A000DEF8042042EA090358BF22EA0903CEF824
:1005B0000430EE03DEF8002042EA090358BF22EAC5
:1005C0000903CEF800300E680AF1040A023408F17B
:1005D000010836FA07F207F101077FF43DAF02B0D8
:1005E000BDE8F08F1823002A08BF2823C1507047A8
:1005F00040F2F820C2F200000068704740F20000AC
:1006000040F2F821C2F20000C2F2000140680A681C
:10061000104408607047000080B5032000F08AF89D
:100620000F2000F009F800281CBF012080BD00F059
:1006300029F8002080BD000070B540F20006044695
:10064000C2F200067068D0B14FF47A71B1FBF0F0DD
:1006500040F20801C2F200010968B1FBF0F000F0BD
:1006600095FE01250F2C08D838B94FF0FF302146F0
:100670000022002500F030F83460284670BD0125C6
:10068000284670BD82B041F25800C4F20200816871
:1006900041F001018160816801F00101019101993E
:1006A000016841F080510160006800F080500090C6
:1006B000009802B000F0E4B80028B8BF704700F01E
:1006C0001F010122400902FA01F14EF20012CEF29E
:1006D000000242F82010704710B500F00F034EF6EC
:1006E0000C5E00F1604CB0F1FF3FA3F10403CEF2C9
:1006F000000E734403F10C04C8BF0CF56444DEF82B
:1007000000004FF0FF3CC0F30220C31E80F0070042
:1007100038BF0023042828BF04200CFA00F021EA87
:1007200000000CFA03F1984022EA0101084300019D
:10073000207010BD4EF60C514FF6FF03CEF20001B3
:100740000A681A4060F30A2242F0806040F0FD70AF
:1007500008607047002847D047F21401B0F5007FC9
:10076000C4F2000151F8142C40F08280C86E40F4AD
:100770008070C86602F4C060B0F5806F76D151F821
:10078000140C012262F34A20322241F8140C40F288
:100790000800C2F20000006850434DF68362C4F2C4
:1007A0001B32A0FB0202900C0A68431C18BF12F413
:1007B000806212D00A68002818BF12F480620CD040
:1007C0000A68012818BF12F4806206D00A6802285D
:1007D00003D0043812F48062E6D10868400544BFB3
:1007E000032070470020704747F21400C4F2000055
:1007F00050F8141CC26E01F4C06122F48072B1F58D
:10080000806FC26632D150F8141C012262F34A2173
:10081000322240F8141C40F20801C2F200010968BB
:1008200051434DF68362C4F21B32A1FB0212910CBC
:1008300002684B1C18BF12F4806212D002680029B3
:1008400018BF12F480620CD00268012918BF12F49C
:10085000806206D00268022903D0043912F4806253
:10086000E6D10068400544BF032070470020704770
:10087000022060F34A2241F8142C00207047000047
:1008800047F20800C4F20000016841F480410160B1
:10089000704700002DE9F04182B00446807841F2B3
:1008A0008806C4F20206000704D400202168CA07A3
:1008B00060D165E056F8300CC0000ED456F8300C0C
:1008C0004FF0010840F0805046F8300C56F8300CDC
:1008D00000F080500190019801E04FF0000847F2CD
:1008E0000007C4F20007386840F480703860FFF7F2
:1008F0007FFE05463868C00506D4FFF779FE401B29
:100900000228F7D9032029E0B06810F440701ED007
:10091000216C88420BD0B068B16841F4803120F47A
:100920004070B160B16821F48031B160B060C0073F
:100930000DD0FFF75DFE054641F28837B0688007AD
:1009400005D4FFF755FE401BB842F7D9DAE7B06887
:10095000216C20F440700843B0600020B8F1000F13
:100960001EBF56F8301C21F0805146F8301C21681B
:10097000CA0705D03268636822F003021A43326066
:100980008A071FD44A0725D40A072BD48A0631D4F4
:100990004A0637D40A063DD4CA0543D48A0549D449
:1009A0004A054FD40A055FD4CA046FD48A0400F103
:1009B00080804A0400F19080090400F1A08002B018
:1009C000BDE8F0813268A36822F00C021A4332605D
:1009D0004A07D9D53268E36822F030021A43326000
:1009E0000A07D3D53268236922F0C0021A43326065
:1009F0008A06CDD53268636922F440621A433260B8
:100A00004A06C7D53268A36922F440521A433260BD
:100A10000A06C1D53268E36922F440421A433260C3
:100A2000CA05BBD53268236A22F440321A433260C9
:100A30008A05B5D53268636A22F440221A433260CF
:100A40004A05AFD53268A36A22F44012B3F5801F7D
:100A500042EA0302326002BF56F87C2C42F4801254
:100A600046F87C2C0A059FD53268E36A22F44002DE
:100A7000B3F5800F42EA0302326002BF56F87C2CC5
:100A800042F4801246F87C2CCA048FD53268236B5E
:100A900022F04072B3F1807F42EA0302326002BF6B
:100AA00056F87C2C42F4801246F87C2C8A047FF5A0
:100AB00080AF3268636B22F04062B3F1006F42EAAC
:100AC0000302326002BF56F87C2C42F4801246F8D2
:100AD0007C2C4A047FF570AF3268A36B22F0406231
:100AE000B3F1006F42EA0302326002BF56F87C2C79
:100AF00042F4801246F87C2C09047FF560AF31681F
:100B0000E26B21F04051B2F1805F41EA02013160B5
:100B100002BF56F87C1C41F4803146F87C1C02B0C0
:100B2000BDE8F0812DE9F047002800F0AC8042F2EA
:100B3000000A04460D46C4F2020ADAF8000000F08A
:100B40000F0088420DD2DAF8000020F00F00284391
:100B5000CAF80000DAF8000000F00F00A84240F0E8
:100B60009280216841F20808C4F20208C80743D104
:100B70004FF00009880700F1F180B9F1800F04D12E
:100B8000D8F8000020F0F000FFE0DAF8000000F0F4
:100B90000F00A84240F20281DAF8000020F00F00B6
:100BA0002843CAF80000FFF723FD064641F28837C4
:100BB000DAF8000000F00F00A8420DD0FFF718FD92
:100BC000801BB84284BF0320BDE8F087DAF800003C
:100BD00000F00F00A842F1D12168480740F1E18000
:100BE000D8F80000E26820F4E0601043C8F8000084
:100BF000080700F1D880DFE06068032837D158F893
:100C0000082C92013FD5D8F80420D8F80430D8F841
:100C100004C0D8F804600227C6F3416602F003025C
:100C200007EB460742F20046032AC0F2F40604BF6F
:100C300041F60036C0F2B706C3F30312CCF3062325
:100C40000132B6FBF2F25A434BF20043B2FBF7F229
:100C5000C0F2C4439A425ED9D8F8002012F0F00FD7
:100C60004FD0890757D5A168002954D149E058F8D9
:100C7000081C022805D189035CBF0120BDE8F0876C
:100C800004E0490502D40120BDE8F087D8F800103F
:100C900001F00C0104293ED0D8F8001001F00C013D
:100CA000082938D0D8F8001001F00C010C2932D1F5
:100CB000D8F80410D8F80420D8F80430D8F8047014
:100CC0000226C7F3416701F0030106EB470742F232
:100CD00000460329C0F2F40604BF41F60036C0F214
:100CE000B706C2F30311C3F306220131B6FBF1F1DB
:100CF00051434BF20042B1FBF7F1C0F2C4429142C2
:100D000009D9D8F8001008224FF0800962F30711C2
:100D1000C8F8001001E04FF00009D8F8001021F0E9
:100D200003010843C8F80000FFF762FC064641F2E1
:100D3000883707E0FFF75CFC801BB84284BF0320C4
:100D4000BDE8F087D8F80000616800F00C00B0EB57
:100D5000810FEFD1216888077FF50FAF480742BFA9
:100D6000D8F8000040F4E060C8F80000080706D595
:100D7000D8F80000072262F30D20C8F80000D8F868
:100D80000000A26820F0F0001043C8F80000DAF874
:100D9000000000F00F00A8423FF6FEAE48073FF506
:100DA0001FAF080708D5D8F80000216920F460506B
:100DB00040EAC100C8F80000D8F8000042F2004143
:100DC000C0F2F40100F00C00042808462DD0D8F839
:100DD000000000F00C0241F60030C0F2B700082A13
:100DE00023D0D8F8002002F00C020C2A1CD1D8F82D
:100DF000042002F00302032A08BF0146D8F80400C9
:100E00000222C0F303100130B1FBF0F0D8F8041057
:100E1000C1F306214843D8F80410C1F3416102EB45
:100E20004101B0FBF1F000E00020D8F8001043F2DF
:100E30000652C0F60002C1F30311515C01F01F011C
:100E4000C84040F20801C2F20001086040F2000010
:100E5000C2F200000068BDE8F047FFF7EDBB0000FC
:100E600040F2080041F2080143F21652C2F20000BB
:100E7000C4F20201C0F6000200680968C1F3022151
:100E8000515C01F01F01C8407047000040F20800AB
:100E900041F2080143F21652C2F20000C4F202010C
:100EA000C0F6000200680968C1F3C221515C01F07C
:100EB0001F01C8407047000041F20C0142F200429D
:100EC000C4F20201C0F2F40251F8040C00F00C006C
:100ED0000428104608BF704751F8040C00F00C03BA
:100EE00041F60030C0F2B700082B1FD051F8043C87
:100EF00003F00C030C2B1CBF002070470B6803F0A1
:100F00000303032B08BF02460868C0F30310013037
:100F1000B2FBF0F00A68C2F30622096850430222CD
:100F2000C1F3416102EB4101B0FBF1F070470000F9
:100F30002DE9F04182B0002800F0BA810446007823
:100F400041F20006C4F20206C0071ED120788007D5
:100F500047D42078000740F1B7806169D6F8940043
:100F6000002900F0848040F00100C6F89400FFF7EB
:100F70003FFB0546D6F89400800700F1A580FFF7F7
:100F800037FB401B0228F5D9EBE0B168F06801F0AF
:100F90000C01082949D0032281F00C0122EA00004B
:100FA0000844B0FA80F040093FD16768B7F5803F48
:100FB00007D03068B7F5A02F40F0D78040F48020EC
:100FC0003060306840F480303060FFF711FB054638
:100FD00030688003BAD4FFF70BFB401B6428F7D9B5
:100FE000BFE0B068F16800F00C00042826D001F0E2
:100FF000030180F00C0081F002010844B0FA80F097
:1010000040091BD1E1683068002941D040F480706C
:101010003060FFF7EDFA05463068400549D4FFF728
:10102000E7FA401B0228F7D99BE0306880037FF580
:101030008DAF606800287FF489AF39E130684005E2
:1010400003D5E068002800F033817068216920F042
:10105000FE4040EA0160706040F20000C2F2000011
:101060000068FFF7E9FA002840F0228171E720F0DC
:101070000100C6F89400FFF7BBFA0546D6F89400C5
:10108000800721D5FFF7B4FA401B0228F6D968E0A3
:1010900020F480703060FFF7ABFA054630684005F9
:1010A0007FF557AFFFF7A4FA411B03200229F5D9BA
:1010B00069E17068216920F0FE4040EA01607060DB
:1010C000207800073FF549AF2078400740F188803D
:1010D000B06DC0000BD4B06D4FF0010840F08050EF
:1010E000B065B06D00F080500190019801E04FF0C4
:1010F000000847F20007C4F200073868C00510D4A2
:10110000386840F480703860FFF772FA054600BF17
:101110003868C00505D4FFF76BFA401B0228F7D9E1
:101120001FE0A768012F07D0D6F89000052F34D113
:1011300040F00400C6F89000D6F8900040F001009E
:10114000C6F89000FFF754FA054641F2883700BF11
:10115000D6F8900080073CD4FFF74AFA401BB8420B
:10116000F6D9032002B0BDE8F08120F48030306071
:10117000306820F480203060FFF73AFA0546002FEF
:101180007FF426AF306880037FF5E0AEFFF730FADA
:10119000411B03206429F5D9F5E020F00100C6F8D1
:1011A0009000D6F8900020F00400C6F89000FFF7F9
:1011B0001FFA0546002FC8D141F28837D6F89000B3
:1011C000800706D5FFF714FA411B0320B942F5D971
:1011D000D9E0B8F1000F1EBFB06D20F08050B065AF
:1011E0002078800627D5A169D6F8980089B140F00B
:1011F0000100C6F89800FFF7FBF90546D6F89800FD
:10120000800718D4FFF7F4F9411B03200229F5D910
:10121000B9E020F00100C6F89800FFF7E9F90546AB
:10122000D6F89800800706D5FFF7E2F9411B0320A6
:101230000229F5D9A7E0E069002800F0A380B16891
:1012400001F00C010C2937D1012831D0F068216A56
:1012500000F003028A422BD1616A6FF00F0202EBA9
:10126000011100F0F0028A4222D1A16A00F4FE428C
:10127000B2EB012F1CD1E16A00F07842B2EBC16FF2
:1012800016D10022216BCFF6E07202EA015100F480
:10129000C002A1F500118A420AD1616B4FF07E4273
:1012A00000F0C06002EA016101F17E41884269D02C
:1012B000012002B0BDE8F0813168022821F0807180
:1012C00031600DD1FFF794F9054600BF3068800109
:1012D0001ED5FFF78DF9411B03200229F6D952E0F4
:1012E000F0684FF6FF71CFF6EE6120F00300F0607A
:1012F000F0680840F060FFF77BF904463068800131
:1013000040D5FFF775F9011B03200229F6D93AE011
:1013100004F12007F0686FF00F058ECF05EB021285
:1013200048F20C05C0F29F1528400843216B10437A
:101330000022CFF6E07240EA032002EA01514FF0AA
:101340007E42A1F500110843616B40EAC76002EAE2
:10135000016101F17E410843F060306840F0807027
:101360003060F06840F08070F060FFF741F90446AB
:101370003068800106D4FFF73BF9011B03200229E6
:10138000F6D900E0002002B0BDE8F081411E002047
:10139000B0EB116F1CBF012070474EF21002F0231A
:1013A000CEF2000251604EF62351CEF200010B70D6
:1013B000072190601160704790F88010012902BFEA
:1013C0000221084670472421C0F88410026813687F
:1013D000116821F0010123F00053116000214166E2
:1013E0001360202280F88010C0F8842008467047DF
:1013F000704700007047000090F88020012A02BF6B
:10140000022108467047B0B524224FF0010EC0F803
:10141000842080F880E00268D2F800C0136823F0CE
:1014200001031360936823F0606319439160416E78
:10143000C9B1916843F23E5E43F23655C0F6000EE4
:10144000C0F60005C1F342611EF80130695CC900B5
:10145000B1FBF3F193685B0F1EF80340EB5CDB001C
:10146000B3FBF4FE00E00121A0F86810A0F86AE0E8
:10147000C2F800C00021202280F88010C0F884202B
:10148000BDE8B0400846704790F88020012A02BFAE
:10149000022108467047B0B524224FF0010EC0F873
:1014A000842080F880E00268D2F800C0136823F03E
:1014B00001031360936823F0604319439160416E08
:1014C000C9B1916843F23E5E43F23655C0F6000E54
:1014D000C0F60005C1F342611EF80130695CC90025
:1014E000B1FBF3F193685B0F1EF80340EB5CDB008C
:1014F000B3FBF4FE00E00121A0F86810A0F86AE058
:10150000C2F800C00021202280F88010C0F884209A
:10151000BDE8B040084670477047000070470000C3
:1015200070470000B0B50446006840F60F01C2697C
:101530000568D0F808C00A4200F0EB8040F22011A4
:101540000123C0F20041C1F2000329400CEA030E5E
:1015500011EB0E0100F0ED80D10718BF15F480717A
:1015600040F0C7810CF00103910708D53BB102217F
:101570000162D4F88C1041F00401C4F88C105107BA
:1015800008D53BB104210162D4F88C1041F002016E
:10159000C4F88C1011070CD505F0200151EA0E019A
:1015A00007D008210162D4F88C1041F00801C4F87A
:1015B0008C1011050BD515F0806108D04FF4006137
:1015C0000162D4F88C1041F02001C4F88C10D4F8DA
:1015D0008C10002900F0B28291060AD505F0200196
:1015E0000CF08052891804D0216F11B12046884731
:1015F0002068D4F88C10826801F0280102F04002C3
:10160000891808D12046FFF78BFF0020C4F88C0012
:1016100094E200BF206850E8000F216820F4907029
:1016200041E80002DAB1206850E8000F216820F498
:10163000907041E8000292B1206850E8000F2168E4
:1016400020F4907041E800024AB1206850E8000F91
:10165000216820F4907041E80002002ADAD14FF6A8
:10166000FE70CEF6FF7000BF216851E8021F2268AD
:10167000014042E80213C3B1216851E8021F226809
:10168000014042E8021383B1216851E8021F226839
:10169000014042E8021343B1216851E8021F226869
:1016A000014042E80213002BDED1E06E012824D174
:1016B000206850E8000F216820F0100041E8000287
:1016C000DAB1206850E8000F216820F0100041E8EE
:1016D000000292B1206850E8000F216820F010004D
:1016E00041E800024AB1206850E8000F216820F06C
:1016F000100041E80002002ADAD12020C4F8880056
:1017000000202067E06620688168490640F1228158
:101710002BE091060DD505F020010CF08053C9187F
:1017200007D0216F002900F009822046BDE8B040B3
:10173000084705EA0203D906E16E4DD501294BD1D0
:10174000102101628168490600F1E180B4F85E1061
:10175000B4F85C20B4F85E30002B1CBF511A5FEA6D
:10176000014200F0EB8148E0206850E8020F216858
:1017700020F0400041E80202DAB1206850E8020F90
:10178000216820F0400041E8020292B1206850E850
:10179000020F216820F0400041E802024AB12068AF
:1017A00050E8020F216820F0400041E80202002AC0
:1017B000DAD1E06F002800F0CD8042F24D31C0F662
:1017C00000018163FEF7D8FD002800F0B781E06FCB
:1017D000816BBDE8B0400847D10240F1AB801CF4FA
:1017E000800100F0A7804FF4801101622046BDE81F
:1017F000B040FFF793BE00BF206850E8000F22689A
:1018000020F4907042E80003DBB1206850E8000F3C
:10181000226820F4907042E8000393B1206850E8F9
:10182000000F226820F4907042E800034BB120685A
:1018300050E8000F226820F4907042E80003002B6B
:10184000DAD14FF6FE70CEF6FF7000BF226852E884
:10185000022F2368024043E80225C5B1226852E8FE
:10186000022F2368024043E8022585B1226852E82E
:10187000022F2368024043E8022545B1226852E85E
:10188000022F2368024043E80225002DDED12020EC
:10189000C4F8880000202067E06600BF206850E898
:1018A000000F226820F0100042E80003DBB120683E
:1018B00050E8000F226820F0100042E8000393B1C6
:1018C000206850E8000F226820F0100042E8000372
:1018D0004BB1206850E8000F226820F0100042E869
:1018E0000003002BDAD189B22046BDE8B040FFF7F3
:1018F0007FBD01210162D4F88C1041F00101C4F8D0
:101900008C100CF0010391073FF530AE37E6E16F24
:101910000A68536899B2002900F01081B4F85CC0DD
:10192000614580F00B81A4F85E301168890600F1F2
:10193000B48015E0110640F1BA8005F0800E0CF479
:10194000000111EB0E0100F0B280616F00297FF4FD
:10195000ECAEF3E02046BDE8B040FFF7E1BD206803
:1019600050E8000F216820F4807041E80002DAB1ED
:10197000206850E8000F216820F4807041E80002E0
:1019800092B1206850E8000F216820F4807041E88F
:1019900000024AB1206850E8000F216820F48070EE
:1019A00041E80002002ADAD1206850E8020F2168DD
:1019B00020F0010041E80202DAB1206850E8020F8D
:1019C000216820F0010041E8020292B1206850E84D
:1019D000020F216820F0010041E802024AB12068AC
:1019E00050E8020F216820F0010041E80202002ABD
:1019F000DAD1206850E8020F216820F0400041E869
:101A00000202DAB1206850E8020F216820F040009D
:101A100041E8020292B1206850E8020F216820F0EC
:101A2000400041E802024AB1206850E8020F2168F4
:101A300020F0400041E80202002ADAD12020C4F858
:101A400088000020E066206850E8000F216820F040
:101A5000100041E80002DAB1206850E8000F216868
:101A600020F0100041E8000292B1206850E8000F19
:101A7000216820F0100041E800024AB1206850E8D7
:101A8000000F216820F0100041E80002002ADAD19E
:101A9000E06FFEF73BFCB4F85CC0B4F85E00ACEB62
:101AA000000081B22046BDE8B040FFF7A1BC590656
:101AB0000BD4100237D515F0804034D02046BDE855
:101AC000B040FFF729BD00BF206850E8000F216833
:101AD00020F0400041E80002DAB1206850E8000F31
:101AE000216820F0400041E8000292B1206850E8EF
:101AF000000F216820F0400041E800024AB1206850
:101B000050E8000F216820F0400041E80002002A60
:101B1000DAD1002060672020C4F884002046BDE8A8
:101B2000B04000F06DBAD00108D5B5F1FF3FC8BF95
:101B3000B0BD2046BDE8B040FFF75CBCB0BD0000C2
:101B4000B0B582B0B0B10446D0F8840028B9002006
:101B500084F88000204600F055F82420C4F8840062
:101B60002068016821F001010160204601F020F8A1
:101B7000012802D1012002B0B0BDA06A10B12046F8
:101B800000F06CFB2068416821F49041416081685D
:101B900021F02A018160016841F00101016000200B
:101BA000C4F88C00FEF724FD05462068016809078B
:101BB0000BD56FF07E404FF4001100222B460090B1
:101BC000204601F087FA70B92068006840070DD5FB
:101BD0006FF07E404FF4800100222B46009020469B
:101BE00001F078FA10B1032002B0B0BD2020C4F893
:101BF0008400C4F88800002084F88000E06602B009
:101C0000B0BD0000B0B598B00446002502A844213C
:101C10001795CDE91555CDE91355FEF731FB44F283
:101C200000412068C4F20001884245D044F600011A
:101C3000C4F20001884276D043F60001C4F20101EB
:101C4000884240F0A980002401200394029002A859
:101C5000FEF720FE002818BFFEF752FB41F24C00B1
:101C6000C4F20200416941F480414161416901F4DB
:101C7000804101910199016841F00101016013A9BE
:101C8000006800F0010001900198072017900220E1
:101C9000CDE9154414904FF4C06013904FF090407C
:101CA000FEF7BCFB252000210022FEF715FD2520B4
:101CB000FEF702FD18B0B0BD02A8022404950294FC
:101CC000FEF7E8FD002818BFFEF71AFB41F24C00B2
:101CD000C4F20200C16841F40031C160C16801F47E
:101CE000003101910199016841F00101016013A9DE
:101CF000006800F001000190019807201790002073
:101D00001690CDE914400C2013904FF09040FEF750
:101D100085FB262000210022FEF7DEFC2620FEF7B0
:101D2000CBFC18B0B0BD002404200594029002A89A
:101D3000FEF7B0FD002818BFFEF7E2FA41F24C00B2
:101D4000C4F20200C16841F48021C160C16801F49D
:101D5000802101910199016841F00201016013A9FC
:101D6000006800F0020001900198072017900220FF
:101D7000CDE9154414904FF44060139040F20040B8
:101D8000C4F60000FEF74AFB272000210022FEF7E0
:101D9000A3FC2720FEF790FC18B0B0BDD0F8883027
:101DA000202B0BD100294FF0010318BF002A01D1CD
:101DB0001846704790F88030012B02D10223184654
:101DC000704780B50023C366012380F8803048F255
:101DD0000003D0F800C0C4F200039C4536D0DCF804
:101DE00004301B0232D55CE8003F02E0036853E890
:101DF000003FD0F800C043F080634CE8003EBEF1E5
:101E0000000F23D0036853E8003FD0F800C043F030
:101E100080634CE8003EBEF1000F17D0036853E822
:101E2000003FD0F800C043F080634CE8003EBEF1B4
:101E3000000F0BD0036853E8003FD0F800C043F018
:101E400080634CE8003EBEF1000FCFD101F000F8F6
:101E50000023BDE8804018467047000010B544F2EA
:101E600000410268C4F2000101F574439A4223D094
:101E70008A422ED001F5806082423CD040F21004AC
:101E800040F280000122C2F20004C2F200002146AA
:101E9000FFF784FF40F21010611C0122C2F2000023
:101EA000FFF77CFF40F2A010A11C0122C2F200004B
:101EB000BDE81040FFF772BF40F21002C2F200020C
:101EC00093885C1C1344948012789A7202688A4248
:101ED000D0D140F21002C2F20002D3885C1CD48040
:101EE00040F230245278C2F20004E254026801F554
:101EF00080608242C2D140F21000C2F2000001892B
:101F00004A1C028140F294228078C2F200025054AE
:101F1000B4E700002DE9F04782B00446D0F8840011
:101F200020280AD10D460120002966D01646002A35
:101F300063D094F88000012803D1022002B0BDE8EC
:101F4000F0874FF0000A01209946C4F88CA084F86D
:101F500080002120C4F88400FEF74AFBA4F85660F4
:101F6000A4F854608046A068B0F5805F0BD1276963
:101F70000026002F0CBF2E462F4684F880A0B4F810
:101F8000560088B928E02F46002684F880A0B4F8CF
:101F9000560048B920E000BFB4F856000138A4F854
:101FA0005600B4F85600B8B12046802100224346BE
:101FB000CDF8009001F08EF8B8B92FB117F8011BD9
:101FC00020688162E8E700BF36F8021B206800271E
:101FD0006FF35F218162DFE7204640210022434604
:101FE000CDF8009001F076F818B1032002B0BDE8FA
:101FF000F0872020C4F88400002002B0BDE8F087FC
:1020000070470000FEE7000070B586B041F24C005A
:10201000002640F6000400224FF400550596C4F255
:102020000200C4F60004016841F004010160016887
:1020300001F0040100910099016841F02001016064
:10204000016801F0200100910099016841F001014F
:102050000160016801F0010100910099016841F0FF
:10206000020101604FF40051006800F0020000908E
:1020700000982046FEF7B6FA0120CDE90366CDE9C7
:10208000015001AD20462946FEF7C8F94FF48810EB
:102090000396294602904FF480700190A4F5806069
:1020A000FEF7BCF906B070BD80B540F2800043F683
:1020B00000014FF00C0C00224FF4E133C2F200009B
:1020C000C4F20101C0E908228262C0E90013C0E93C
:1020D0000222C0E9042CC0E90622FFF731FD0028E6
:1020E00018BFFEF70DF940F280000021C2F2000097
:1020F000FFF7CAF9002818BFFEF702F940F2800086
:102100000021C2F20000FFF777F9002818BFFEF7A0
:10211000F7F840F28000C2F20000FFF74DF9002806
:1021200014BFBDE8804080BDFEF7EAB880B540F23C
:10213000101044F200414FF00C0C00224FF4E13338
:10214000C2F20000C4F20001C0E908228262C0E9C4
:102150000013C0E90222C0E9042CC0E90622FFF7FF
:10216000EFFC002818BFFEF7CBF840F2101000215A
:10217000C2F20000FFF788F9002818BFFEF7C0F888
:1021800040F210100021C2F20000FFF735F90028DC
:1021900018BFFEF7B5F840F21010C2F20000FFF7CA
:1021A0000BF9002814BFBDE8804080BDFEF7A8B839
:1021B00080B540F2A01044F600014FF00C0C002254
:1021C0004FF4E133C2F20000C4F20001C0E908227A
:1021D0008262C0E90013C0E90222C0E9042CC0E910
:1021E0000622FFF7ADFC002818BFFEF789F840F281
:1021F000A0100021C2F20000FFF746F9002818BF26
:10220000FEF77EF840F2A0100021C2F20000FFF7B6
:10221000F3F8002818BFFEF773F840F2A010C2F2DE
:102220000000FFF7C9F8002814BFBDE8804080BD5A
:10223000FEF766B8FEE70000FEE70000704700000A
:1022400070470000FEF7DAB94EF68850CEF2000073
:10225000016841F47001016070470000816ACA079B
:102260000DD18A0716D44A071FD40A0728D4CA06F4
:1022700031D48A063AD480B54A0659D542E002687C
:102280005368D0F82CC023F4003343EA0C035360A6
:102290008A07E8D502685368D0F830C023F4803349
:1022A00043EA0C0353604A07DFD502685368D0F84D
:1022B00034C023F4802343EA0C0353600A07D6D5C5
:1022C00002685368D0F838C023F4004343EA0C0393
:1022D0005360CA06CDD502689368D0F83CC023F499
:1022E000805343EA0C0393608A06C4D5026893685E
:1022F000D0F840C023F4005343EA0C03936080B548
:102300004A0615D5D0F800E0DEF804C0436C2CF482
:102310008012B3F5801F42EA0302CEF8042007D1F1
:10232000DEF80420836C22F4C0021A43CEF80420A5
:102330000906BDE8804058BF704701684A68C06C14
:1023400022F400221043486070470000806A002198
:10235000A0F85E10A0F85610FFF7E2B80168D0F8B8
:102360008820222A40F09980B0F860204B6A1A40F9
:10237000836D23F8022BB0F85E20013AA0F85E20AE
:102380008365B0F85E20002A18BF704701E000BFE7
:10239000016851E8001F026821F4907142E80013BF
:1023A000E3B1016851E8001F026821F4907142E82E
:1023B00000139BB1016851E8001F026821F490717D
:1023C00042E8001353B1016851E8001F026821F48C
:1023D000907142E80013002BDAD100BF016851E888
:1023E000021F026821F0010142E80213DBB101681B
:1023F00051E8021F026821F0010142E8021393B183
:10240000016851E8021F026821F0010142E802134D
:102410004BB1016851E8021F026821F0010142E856
:102420000213002BDAD12021C0F8881000210167A7
:10243000C26E012A18BFFFF711BDC166016851E8DD
:10244000001F026821F0100142E80013DBB10168AF
:1024500051E8001F026821F0100142E8001393B117
:10246000016851E8001F026821F0100142E80013E2
:102470004BB1016851E8001F026821F0100142E8E9
:102480000013002BDAD10168CA69D20644BF1022BA
:102490000A62B0F85C10FEF7ABBF886940F0080034
:1024A000886170472DE9F04F81B00446B0F8605064
:1024B0000068C36901688268D4F88870222F40F0F0
:1024C0005981B4F86870002F18BF13F0200300F092
:1024D000F8804FF6FE7702F0010601F480784FF0A5
:1024E00020094FF0000ACEF6FF7700E02068416A2D
:1024F000A26D294022F8021BA265B4F85E100139D2
:10250000A4F85E10D0F81CB05FEA4B711AD0B8F195
:10251000000F18BF1BF0010140F0A280002E18BF71
:102520001BF0020140F0AA80002E18BF1BF004012E
:1025300040F0B280D4F88C0020B12046FEF7F0FFC6
:10254000C4F88CA0B4F85E0020B15FEA8B60CDD4F3
:10255000B7E000BF206850E8000F216820F48070C9
:1025600041E80002E2B1206850E8000F216820F441
:10257000807041E800029AB1206850E8000F21689D
:1025800020F4807041E8000252B1206850E8000F4A
:10259000216820F4807041E80002002ADAD100BFEF
:1025A000206850E8020F2168384041E80202C2B1B9
:1025B000206850E8020F2168384041E8020282B1E9
:1025C000206850E8020F2168384041E8020242B119
:1025D000206850E8020F2168384041E80202002AD2
:1025E000DED1C4F88890C4F870A0E06E012861D1F3
:1025F000C4F86CA0206850E8000F216820F010009B
:1026000041E80002DAB1206850E8000F216820F0AC
:10261000100041E8000292B1206850E8000F2168E4
:1026200020F0100041E800024AB1206850E8000F95
:10263000216820F0100041E80002002ADAD1206869
:10264000C169C90644BF102101622046B4F85C107C
:10265000FEF7CEFE5FEA8B603FF548AF31E000BF8A
:1026600001210162D4F88C1041F00101C4F88C10F2
:10267000002E18BF1BF002013FF456AF0221016289
:10268000D4F88C1041F00401C4F88C10002E18BF4F
:102690001BF004013FF44EAF04210162D4F88C001A
:1026A00040F00200C4F88C00D4F88C0000287FF4BD
:1026B00044AF47E72046FFF7D1FB5FEA8B603FF569
:1026C00015AFB4F85E00002858D0B4F868108842FE
:1026D00054D200BF206850E8020F216820F08050DB
:1026E00041E80202DAB1206850E8020F216820F0C8
:1026F000805041E8020292B1206850E8020F216840
:1027000020F0805041E802024AB1206850E8020FF0
:10271000216820F0805041E80202002ADAD142F21A
:102720005D30C0F600002067206850E8000F216887
:1027300040F0200041E8000202B3206850E8000F9A
:10274000216840F0200041E80002BAB1206850E85A
:10275000000F216840F0200041E8000272B12068BB
:1027600050E8000F216840F0200041E80002002AF4
:10277000DAD103E0816941F00801816101B0BDE86F
:10278000F08F00000168D0F88820222A40F099805C
:10279000B0F86020496A1140826D1170B0F85E1087
:1027A0000139A0F85E10816D01318165B0F85E10CD
:1027B000002918BF704700BF016851E8001F026878
:1027C00021F4907142E80013E3B1016851E8001F61
:1027D000026821F4907142E800139BB1016851E84E
:1027E000001F026821F4907142E8001353B10168A0
:1027F00051E8001F026821F4907142E80013002B99
:10280000DAD100BF016851E8021F026821F001011E
:1028100042E80213DBB1016851E8021F026821F0AF
:10282000010142E8021393B1016851E8021F0268F6
:1028300021F0010142E802134BB1016851E8021F87
:10284000026821F0010142E80213002BDAD12021B5
:10285000C0F8881000210167C26E012A18BFFFF777
:10286000FDBAC166016851E8001F026821F010013D
:1028700042E80013DBB1016851E8001F026821F053
:10288000100142E8001393B1016851E8001F02688B
:1028900021F0100142E800134BB1016851E8001F1C
:1028A000026821F0100142E80013002BDAD1016820
:1028B000CA69D20644BF10220A62B0F85C10FEF763
:1028C00097BD886940F00800886170472DE9F04F96
:1028D00081B00446B0F860500068C369016882683E
:1028E000D4F88870222F40F05B81B4F86870002F14
:1028F00018BF13F0200300F0FA804FF6FE7702F0C5
:10290000010601F480784FF020094FF0000ACEF65E
:10291000FF7700E02068406AA16D28400870A16D33
:1029200020680131A165B4F85E100139A4F85E1089
:10293000D0F81CB05FEA4B711AD0B8F1000F18BF85
:102940001BF0010140F0A280002E18BF1BF0020115
:1029500040F0AA80002E18BF1BF0040140F0B280A6
:10296000D4F88C0020B12046FEF7DAFDC4F88CA024
:10297000B4F85E0020B15FEA8B60CBD4B7E000BF53
:10298000206850E8000F216820F4807041E80002C0
:10299000E2B1206850E8000F216820F4807041E81F
:1029A00000029AB1206850E8000F216820F480707E
:1029B00041E8000252B1206850E8000F216820F47D
:1029C000807041E80002002ADAD100BF206850E898
:1029D000020F2168384041E80202C2B1206850E885
:1029E000020F2168384041E8020282B1206850E8B5
:1029F000020F2168384041E8020242B1206850E8E5
:102A0000020F2168384041E80202002ADED1C4F8F2
:102A10008890C4F870A0E06E012861D1C4F86CA061
:102A2000206850E8000F216820F0100041E8000203
:102A3000DAB1206850E8000F216820F0100041E86A
:102A4000000292B1206850E8000F216820F01000C9
:102A500041E800024AB1206850E8000F216820F0E8
:102A6000100041E80002002ADAD12068C169C906D5
:102A700044BF102101622046B4F85C10FEF7B8FC98
:102A80005FEA8B603FF546AF31E000BF0121016294
:102A9000D4F88C1041F00101C4F88C10002E18BF3E
:102AA0001BF002013FF456AF02210162D4F88C10F2
:102AB00041F00401C4F88C10002E18BF1BF0040173
:102AC0003FF44EAF04210162D4F88C0040F00200C4
:102AD000C4F88C00D4F88C0000287FF444AF47E79A
:102AE0002046FFF7BBF95FEA8B603FF513AFB4F800
:102AF0005E00002858D0B4F86810884254D200BF55
:102B0000206850E8020F216820F0805041E802025E
:102B1000DAB1206850E8020F216820F0805041E8C7
:102B2000020292B1206850E8020F216820F0805024
:102B300041E802024AB1206850E8020F216820F003
:102B4000805041E80202002ADAD142F28570C0F6D4
:102B500000002067206850E8000F216840F0200046
:102B600041E8000202B3206850E8000F216840F0FD
:102B7000200041E80002BAB1206850E8000F216847
:102B800040F0200041E8000272B1206850E8000FD8
:102B9000216840F0200041E80002002ADAD103E079
:102BA000816941F00801816101B0BDE8F08F00004A
:102BB000B0B504460368806848F2000ED4E90412F8
:102BC000E569C4F2000E734540EA010046F6F311D0
:102BD00040EA02001A68CCF6FF7140EA050001EAFB
:102BE00002014FF2FF4240EA0100C1F2FF121860F9
:102BF0005868E16820F4405040EA01005860A0693C
:102C00001CBF216A0843996811401022084344F60A
:102C1000FF319860C4F20001D86AD4F824C08B4216
:102C200020F00F0040EA0C00D86242F20040C0F2EF
:102C3000F4001CDD44F60041C4F200018B4224D0B4
:102C4000734524D043F60001C4F201018B422CD11C
:102C500041F288017AA2C4F20201096801F003017D
:102C600052F821200121B5F5004F24D032E044F282
:102C70000041C4F200018B420BD044F60001C4F2C3
:102C800000018B4211D1042204E0062202E00A2254
:102C900000E0022241F28801C4F202010968D14039
:102CA00063A201F0030152F82120734522D00121D3
:102CB000B5F5004F0ED1082A00F2B280DFE802F02D
:102CC000055967B05FB0B0B06500FEF7C9F80028DD
:102CD00052D158E0082A00F2A380DFE802F005781C
:102CE00086A17EA1A1A18400FEF7BAF8002840F0D9
:102CF000718076E00121082A00F29280DFE802F07C
:102D0000059013900B9090901100FEF7A9F830B148
:102D1000D4F824C007E0FEF7CFF80028F8D100214E
:102D20007EE04FF4004043F21E516268C0F600019D
:102D300031F81C1002EB4203B0FBF1F00121984284
:102D40006ED3130398426BD8010E0002002310EBE0
:102D5000520041F10001FDF75BFA4FF6FF42A0F58A
:102D60004071C0F20F02914259D82168C860002119
:102D700056E0FEF78BF830B1D4F824C007E0FEF738
:102D80009BF80028F8D100214AE04FF4004043F2BC
:102D90001E51C0F6000131F81C10B0FBF1F0616863
:102DA0004A0802EB40004FF6EF72B0FBF1F0A0F1E1
:102DB0001001914209D84FF6F0710140C0F3420072
:102DC00008442168C86000212AE0012128E0FEF7BC
:102DD0005DF830B1D4F824C007E0FEF76DF80028A4
:102DE000F8D100211CE04FF4004043F21E514FF691
:102DF000EF72C0F6000131F81C10B0FBF1F0616811
:102E000000EB5100B0FBF1F0A0F11001914204D8A9
:102E1000216880B2C860002102E0012100E00121A8
:102E20000020C4E91C004FF00110A0660846B0BDA8
:102E30000000000004000000020000000800000084
:102E40000100000004000000020000000800000073
:102E5000A0F85E20A0F85C208165002101678168F0
:102E600051B1B1F1805F0BD0B1F5805F0CD1016938
:102E700021B940F2FF110AE0016939B9FF2106E0EA
:102E8000016919B13F2102E0002100E07F21A0F893
:102E900060100021C0F88C102221C0F8881000BFFB
:102EA000016851E8021FD0F800C041F001014CE870
:102EB0000213F3B1016851E8021FD0F800C041F0DD
:102EC00001014CE80213A3B1016851E8021FD0F8D8
:102ED00000C041F001014CE8021353B1016851E810
:102EE000021FD0F800C041F001014CE80213002B92
:102EF000D6D1416EB1F1005F03D1B0F868109142B4
:102F000046D982680169B2F5805F0AD100294FD0A5
:102F1000002180F8801042F28571C0F6000101673F
:102F20000AE00022002980F8802042F28572C0F673
:102F30000002026744D000BF016851E8001F026828
:102F400041F4907142E80013002B00F0C08001684A
:102F500051E8001F026841F4907142E80013002B11
:102F600000F0B580016851E8001F026841F49071DB
:102F700042E80013002B00F0AA80016851E8001F0E
:102F8000026841F4907142E80013002BD4D19EE016
:102F900082680169B2F5805F3BD100296AD00021C7
:102FA00080F8801042F6CD01C0F6000101673BE0D9
:102FB000002180F8801042F25D31C0F60001016707
:102FC000016851E8001F026841F0200142E8001347
:102FD000002B7CD0016851E8001F026841F02001FD
:102FE00042E80013002B72D0016851E8001F02680C
:102FF00041F0200142E80013002B68D0016851E83D
:10300000001F026841F0200142E80013002BD7D1D5
:103010005DE00022002980F8802042F6CD02C0F653
:10302000000202672ED000BF016851E8001F02684D
:1030300041F4807142E8001323B3016851E8001F96
:10304000026841F4807142E80013DBB1016851E885
:10305000001F026841F4807142E8001393B10168D7
:1030600051E8001F026841F4807142E80013002B10
:10307000DAD107E0002180F8801042F2A541C0F6C5
:1030800000010167016851E8021F026841F08051A8
:1030900042E80213DBB1016851E8021F026841F007
:1030A000805142E8021393B1016851E8021F02689F
:1030B00041F0805142E802134BB1016851E8021F10
:1030C000026841F0805142E80213002BDAD100205F
:1030D000704700002DE9F041044600680D46C169C3
:1030E0002940491BB1FA81F14F09974229D1DDF8F6
:1030F0001880B8F1000F27D018F1010127D100BFC7
:10310000C1692940491B18BF012197EA010F04BF7B
:103110000020BDE8F081C1692940491B18BF012189
:103120008F420ED0C1692940491B18BF01218F422F
:1031300007D0C1692940491B18BF012197EA010F37
:10314000DED10020BDE8F081FDF752FA22E01E46F4
:10315000FDF74EFA801B404510D91BE0C06928409E
:10316000401B18BF012097EA000F04BF0020BDE8F4
:10317000F081FDF73DFA801B40450BD820680168BF
:10318000490744BFC1695FEA0151E7D54FF40061C7
:10319000016256E0206850E8000F216820F4D070EA
:1031A00041E80002E2B1206850E8000F216820F4F5
:1031B000D07041E800029AB1206850E8000F216801
:1031C00020F4D07041E8000252B1206850E8000FAE
:1031D000216820F4D07041E80002002ADAD100BF53
:1031E000206850E8020F216820F0010041E8020247
:1031F000DAB1206850E8020F216820F0010041E8B0
:10320000020292B1206850E8020F216820F001000C
:1032100041E802024AB1206850E8020F216820F01C
:10322000010041E80202002ADAD120200021C4F87E
:10323000840084F88010C4F888000320BDE8F08181
:10324000206850E8000F216820F4D07041E80002A7
:10325000E2B1206850E8000F216820F4D07041E806
:1032600000029AB1206850E8000F216820F4D07065
:1032700041E8000252B1206850E8000F216820F4B4
:10328000D07041E80002002ADAD100BF206850E87F
:10329000020F216820F0010041E80202DAB1206843
:1032A00050E8020F216820F0010041E8020292B1CB
:1032B000206850E8020F216820F0010041E8020276
:1032C0004AB1206850E8020F216820F0010041E86F
:1032D0000202002ADAD120200021C4F88400C4F8B8
:1032E000880084F88010C4F88C000320BDE8F081C9
:1032F00040F28000C2F20000FEF714B940F2101054
:10330000C2F20000FEF70EB940F2A010C2F20000B7
:10331000FEF708B9FEE7000094B0FDF77DF9002440
:1033200000200C94CDE90A44CDE908440594CDE988
:103330000344CDE90144FDF70DFA02205521032590
:103340001390CDE9110010910F95CDE90D054FF4C3
:10335000803007900120069006A8FDF7E9FD20B116
:10336000EFF3108072B600BFFEE70F20CDE90444F2
:10337000CDE902540421019001A8FDF7D3FB20B14F
:10338000EFF3108072B600BFFEE7FEF73DFEFEF7DA
:103390008BFEFEF7CBFEFEF70BFF40F2800446A14A
:1033A0000D22FF23C2F200042046FEF7B3FD40F2D7
:1033B000101545A10D22FF23C2F200052846FEF795
:1033C000A9FD40F2A01644A10D22FF23C2F200067F
:1033D0003046FEF79FFD40F2100120460122C2F266
:1033E0000001FEF7DBFC40F2110128460122C2F287
:1033F0000001FEF7D3FC40F2120130460122B24632
:10340000C2F20001FEF7CAFC40F2140640F21607B1
:1034100040F2180840F2942B40F2302440F21A0592
:103420004FF00009C2F20006C2F20007C2F2000823
:10343000C2F2000BC2F20004C2F200053220FCF717
:10344000D9FF308858B1328850462946FF23FEF70D
:1034500061FD31882846FCF713FFA6F80090322062
:10346000FCF7C8FF388870B140F210103A88214646
:10347000FF23C2F20000FEF74DFD39882046FCF71D
:10348000FFFEA7F800903220FCF7B4FFB8F8000068
:103490000028D3D040F28000B8F800205946FF231E
:1034A000C2F20000FEF736FDB8F800105846FCF7EF
:1034B000E7FEA8F80090C1E755415254312053541B
:1034C000415254210A0000005541525432205354B5
:1034D000415254210A0000005541525433205354A4
:1034E000415254210A00000002E008C8121F08C11E
:1034F000002AFAD170477047002001E001C1121F75
:10350000002AFBD17047000000000000000001020B
:10351000030406070809000000000102030401007B
:1035200002000400060008000A000C001000200041
:1035300040008000000101010103070100000804B0
:1035400002040801010100006835000800000020A5
:1035500010000000E8340008783500081000002052
:10356000F0060000F8340008100000000100000020
:083570000024F400000000003B
:04000005080001D915
:00000001FF
